:1000000003308A009F2B00000A108A100A11820711
:100010003734383439344134343435343634423476
:1000200031343234333443342A3430342334443496
:100030000A108A100A11820741344D3420340034EA
:100040000A108A100A11820744344F344D3449345F
:100050004E342E3400340A108A100A1182074C34B0
:1000600055344E3445345334203400340A108A1049
:100070000A1182074D3441345234543445345334D8
:1000800000340A108A100A1182074D34493445346D
:10009000523443342E3400340A108A100A11820775
:1000A0004A345534453456344534533400340A10F8
:1000B0008A100A11820756344934453452344E347A
:1000C0002E3400340A108A100A1182075334413446
:1000D0004234413444344F3400340A108A100A1137
:1000E000820750344D34203400343117E837F23071
:1000F00020192E33E531E83000002F17EF35201599
:10010000AE307439E13900015230840083130008A5
:10011000031997280630F800F701F70B8D28F80B24
:100120008C287B30F700F70B9328800B8A28080077
:10013000590EF039F7000F300805770488000000E9
:100140000814831608100230F700F70BA528A8281A
:100150000000831208108316081083120800080894
:10016000F700080E0F39F8000800831608108810F1
:10017000081183128810831688100F300805F03894
:1001800088008312081583160811000083120814D2
:100190008316081000008312AF207808D9000810D9
:1001A0008316081000008312081483160810D8283C
:1001B000D92800008312AF207808D80008108316D1
:1001C00008100F30080588008312590EF700F03030
:1001D000F70577085804F8007808D800D81FF228E7
:1001E0008316BD28D608031DF7288810F828881420
:1001F000831688100000831208118316081100006E
:1002000083120810831608108312570ED8000F307F
:10021000D8055808D900982057080F39D800D900B8
:10022000982008002830C9000C30CA000130CB00EB
:100230000630CC000810831608108312881083162D
:10024000881083120811831608110F3008058800E2
:100250000810881008110F308312D200842001305A
:10026000C8004808033C031C3D290330D9009820EE
:100270000530D2008420C80A31290230D9009820E4
:100280000530D2008420C8014808033C031C5429CF
:1002900049304807840083130008CD00D6014D087B
:1002A000D700B520C80A44298A110A12B32B530B70
:1002B0005A295D294030D4005E29D4010130520210
:1002C000D40754088038D500D6015508D700B5208A
:1002D00008005108073A031977290B3A03197C29BA
:1002E000063A03198429023A03198A298F29013011
:1002F000D200D30057219429D6010130D700B52070
:100300000230D200842094290130D2000230D30080
:1003100057219429D6011030D700B52094290130F7
:10032000D6005108D700B52008008A110A12D62B32
:10033000C801A00A2008213C0318F8292308FC3E24
:100340000318BB29043E012AEF308316860083126E
:100350008600BB29DF308316860083128600BB2906
:10036000BF308316860083128600BB297F30831638
:10037000860083128600211CC72906080F390F3C0E
:10038000031DC62921102208C800A201F72906086A
:100390000F390F3C0319F22906080139031DD22930
:1003A000C901E62906080239031DD9290130C9000F
:1003B000E62906080439031DE0290230C900E629B0
:1003C00006080839031DE6290330C900490DF70066
:1003D000F70DFC30F705770823070420F800A2008A
:1003E0002114F729A30A2308043C0319A301A0013F
:1003F000FF308316860083124808F8008A110A121B
:10040000DA2B0A108A140A118207A429AA29B02912
:10041000B6290B08C8008B13831603178C170C140E
:100420000000000083120313C81B8B1703170C086E
:100430007F3903195D2A0313C80003170D0803133E
:10044000C90003170F080313CA004808D100692127
:10045000490803178D0003134A0803178F0003137D
:100460000B08CB008B13831603178C170C1400009A
:10047000000083120313CB1B8B1703170C0D0E0DFB
:100480007F3903195D2A0313C80003170D080313EE
:10049000C90003170F080313CA004808D1006921D7
:1004A000490803178D0003134A0803178F008D0AAC
:1004B00003198F0A0313092A0317031308004F08AF
:1004C000F8014E020318672A4E08F700732AF70155
:1004D0000830D000CE0DF70D4F0877020318F70053
:1004E000F80DD00B6A2A08002030491E3030CA00AF
:1004F0004808F700C81F842AF709F70A7708C800D8
:100500002D30CA00C91749144808CE006430CF0006
:100510005F227708C80030307807CB004808CE004B
:100520000A30CF005F2230307707CD0030307807B7
:10053000CC004A08F70030304B020319A32AC91433
:10054000C91B4915B72A4A08CB002030CA003030F1
:100550004C020319AF2A4914C91BC914B72A031D39
:100560004914031DB72A4B08CC002030CB00491991
:10057000BE2AC918C12A4918C42AC72A4A08D10064
:1005800069214B08D10069214C08D10069214D082F
:10059000D10069210800F801F901F701FA015108B9
:1005A000031DD52A50080319EF2A1030D20003107A
:1005B000CE0DCF0DF70DFA0D51087A02031DE22A78
:1005C00050087702031CEB2A5008F702031CFA03B9
:1005D0005108FA020314F80DF90DD20BD72A0800BE
:1005E0001030D200F701FA01CF0CCE0C031CFE2A0A
:1005F0005008F7070318FA0A5108FA07FA0CF70C23
:10060000F90CF80CD20BF42A8A110A12902D8008EA
:1006100003191C2BC9010408C8004910831B491485
:100620000008D10069214808840083134918831702
:10063000840A0319850A072B0800D0010408CF009B
:100640005010831B5014C91F2D2BCF174F1ECF0ADC
:10065000C809C909C80A0319C90A490EF038CB00EC
:10066000CB07E23ECC00323ECE0049080F39CC0722
:10067000CC07CE07E93ECD00CD07CD07480E0F3998
:10068000CD07CE07CD0DCE0DCE09CE0D48080F39C2
:10069000CE07CB0D0730CA000A30CE07CD03031CAE
:1006A0004D2BCD07CC03031C512BCC07CB03031CD4
:1006B000552BCB07CA03031C592B4A3084008313E4
:1006C00007304F054F1384034F05031D6E2B4F1A40
:1006D000840A4F1A6E2B2030F7008B2B84074E3084
:1006E000040203194F170008F700031D7F2B4F1B4F
:1006F0007F2B4F1A992BCF197F2B20308A2BCF1F9E
:10070000872B2D30F70084034F13CF138B2BCF157E
:100710004F123030F707C9010408C8004910831B85
:1007200049147708D10069214808840083134918C7
:100730008317840A4F1F6F2B8A110A12162E030883
:100740001F39830083161F149F141F159F118313D5
:100750008312A0012110A201A301A401A501AA01F5
:100760003030AB0012290C30D10069210130AC00CF
:100770000230AD00B2010130B300B4000630B50064
:10078000B6010730B800D030B700C801C901433006
:100790008400831348088407490818208000003823
:1007A0000319D52BC90AC80AC72B952983168113AB
:1007B000831298297808AB002B08433C031D862C34
:1007C0003030AB002B08413C031DEA2B2B08423C88
:1007D0000319862C0C30D1006921753003178D0068
:1007E00000308F00031309222B08313C031D852C98
:1007F0002B08413C031D002C2B08423C0319852C7F
:100800000C30D10069217D3003178D0000308F003E
:10081000031309220130D2000230D30057212C08E3
:10082000C8001830C90074222D08C8001830C9004B
:1008300074223A30D10069212F08C8001830C9004D
:1008400074222E08C8001830C90074223A30D10032
:1008500069213108C8001830C90074223008C80066
:100860001830C90074222030D10069212B08303C97
:100870000319662C2B08313C0319662C2B08323CDB
:100880000319662C2B08333C0319662C2B08343CC7
:100890000319662C2B08353C0319662C2B08363CB3
:1008A0000319662C2B08373C0319662C2B08383C9F
:1008B0000319662C2B08393C0319662C2B082A3C9B
:1008C0000319662C2B08233C031D842C2A08FA3EAE
:1008D0000318832C063E952E30302B02AC00832C5F
:1008E00030302B02AD00832C30302B02AF00832C34
:1008F00030302B02AE00832C30302B02B100832C21
:1009000030302B02B000AA0AF82BE22B370803394B
:10091000C800C901C808031DA22CC908031DA22CC8
:100920003808CF003708CE00D1016430D000CB2288
:100930007708C8007A08C900C808031DB52CC90883
:10094000031DB52C3808CF003708CE000130D10088
:100950009030D000CB227708C8007A08C900C808B8
:10096000031DB82CC908031DB82C1D30C600BA2CB5
:100970001C30C60001303402F43E0318C92C0C3E72
:100980009F2E1E30C700C92C4608C700C92C1F3037
:10099000C7003508F93E0318C72D073EAF2EC80122
:1009A000C90139308400831348088407490820208E
:1009B000800000380319DF2CC90AC80AD12CC72DC2
:1009C000C801C901393084008313480884074908E5
:1009D0002B20800000380319F02CC90AC80AE22C29
:1009E000C72DC801C9013930840083134808840722
:1009F00049083620800000380319012DC90AC80AA9
:100A0000F32CC72DC801C90139308400831348086D
:100A1000840749084120800000380319122DC90AB3
:100A2000C80A042DC72DC801C901393084008313B9
:100A30004808840749084C20800000380319232DFA
:100A4000C90AC80A152DC72DC801C901393084004B
:100A50008313480884074908572080000038031989
:100A6000342DC90AC80A262DC72DC801C90139303D
:100A700084008313480884074908622080000038F6
:100A80000319452DC90AC80A372DC72D0130370271
:100A9000C8003808C9000030031C0130C9024908E9
:100AA000CF004808CE00D1010730D000CB22770814
:100AB000C8007A08C90001303702CA003808CB00E4
:100AC0000030031C0130CB02CB0CCA0CCB0CCA0C7F
:100AD0003F30CB0501303702CC003808CD00003064
:100AE000031C0130CD024D08CF004C08CE00D101CF
:100AF0006430D000CB227808CC0001307807F800B1
:100B00007908FA000318FA0A7808CC007A08CD00B0
:100B1000CF010330CE007A08D1007808D000F02A47
:100B20007908CD007808CC00790CFA00780CF9002F
:100B3000FA0CF90C3F30FA057908CA027A08031C4E
:100B40007A0FCB024B08CF004A08CE00D101073004
:100B5000D000CB227708C8077A0803187A0FC90794
:100B60003408C8070318C90A3308CE000730CF007D
:100B70005F227708C8070318C90A4908CF00480848
:100B8000CE00D1010730D000CB227708B50001306C
:100B9000D200D30057212030D10069212C08C80091
:100BA0001830C90074222D08C8001830C9007422FA
:100BB0003A30D10069212F08C8001830C9007422CA
:100BC0002E08C8001830C90074223A30D1006921BB
:100BD0003108C8001830C90074223008C800183025
:100BE000C900742243308400831307230130D200EC
:100BF0000230D30057213930840083130723330890
:100C0000C8001830C90074222F30D100692134087F
:100C1000C8001830C90074222F30D100692110306B
:100C200084003808C9003708C8001D2B0430C800EC
:100C3000FA30D2008420C80B182EB00A30080A3CC3
:100C4000031D242EB10AB0013108073C031D2A2ED2
:100C5000B101AE0A2E080A3C031D302EAE01AF0AC8
:100C60002F08063C031D362EAD0AAF012D080A3CA5
:100C7000031D3D2EAD010130AC002D08033C031DCA
:100C8000462E2C0B462E0130AD00AC012D08023C47
:100C9000031D782E2C0B782EB2080319782EB20182
:100CA000360B662EC801C9014330840083134808FF
:100CB000840749081820800000380319622EC90AE9
:100CC000C80A542EB30AB50AB601782EC801C90164
:100CD0004330840083134808840749086D2080004E
:100CE00000380319762EC90AC80A682E0130B600EA
:100CF000013047073302031D802EB40A0130B300D0
:100D000034080D3C031D892E0130B400B70A0319C5
:100D1000B80A3508073C0319B5012D08023C031930
:100D2000932E0130B200D52B63000A108A140A15E5
:100D300082076C2C702C742C782C7C2C802C0A1044
:100D40008A140A158207C72CC42CC72CC12CC72CA7
:100D5000C12CC72CC72CC12CC72CC12CC72C0A10E6
:100D60008A140A158207CF2CE02CF12C022D132DAA
:040D7000242D352DCC
:02400E00723FFF
:00000001FF
;PIC16F877
;CRC=0CB5  CREATED="15-jun-19 10:12"
